:020000002B2CA7
:10000800FF00030E8301ED000A08EE008A01700864
:10001800A1006908013A031D1328E90115280130D8
:10002800E9008B102108F0006E088A006D0E83002D
:06003800FF0E7F0E09001F
:10003E00103083120313FD00FD0B2328000008006F
:10004E00083083120313FC002330FD00FD0B2D2816
:06005E00FC0B2D28080038
:040064000000080090
:1000680083160313E21B3B28831286133D28831251
:1000780086178316621B43288312061345288312AA
:1000880006178316E21A4B28831286124D2883120C
:1000980086168316621A532883120612552883126D
:1000A80006166C18592886145A2886108615322088
:1000B80086118316E2196328831286136528831232
:1000C8008617831662196B28831206136D2883120C
:1000D80006178316E218732883128612752883126E
:1000E8008616831662187B28831206127D288312CF
:1000F80006166C18812886148228861086153220E8
:0E01080086116C1C892827208A281F200800D9
:10011600831203136C1083166108E20034206C14FA
:020126000800CF
:1001280083120313FB01FA01F901F801A001730D11
:10013800F80D7408F8027508031C750FF9027608A3
:10014800031C760FFA027708031C770FFB020001E5
:10015800031C0130A002F30D0730FC00730DF80DED
:10016800F90DFA0DFB0DA00D7408731CCD28F802CB
:100178007508031C750FF9027608031C760FFA023E
:100188007708031C770FFB020001031C0130A00253
:10019800DE28F80775080318750FF907760803189D
:1001A800760FFA0777080318770FFB070001031883
:1001B8000130A007F30DFC0BB228720DF80DF90DF4
:1001C800FA0DFB0DA00D7408731CFC28F8027508C5
:1001D800031C750FF9027608031C760FFA027708DC
:1001E800031C770FFB020001031C0130A0020D293C
:1001F800F80775080318750FF90776080318760FBE
:10020800FA0777080318770FFB0700010318013076
:10021800A007F20D0730FC00720DF80DF90DFA0D6C
:10022800FB0DA00D7408721C2B29F8027508031C1D
:10023800750FF9027608031C760FFA027708031C7B
:10024800770FFB020001031C0130A0023C29F807CC
:1002580075080318750FF90776080318760FFA075B
:1002680077080318770FFB07000103180130A00770
:10027800F20DFC0B1029710DF80DF90DFA0DFB0D9F
:10028800A00D7408721C5A29F8027508031C750F12
:10029800F9027608031C760FFA027708031C770F19
:1002A800FB020001031C0130A0026B29F807750846
:1002B8000318750FF90776080318760FFA077708F9
:1002C8000318770FFB07000103180130A007F10D91
:1002D8000730FC00710DF80DF90DFA0DFB0DA00D9E
:1002E8007408711C8929F8027508031C750FF90236
:1002F8007608031C760FFA027708031C770FFB02B7
:100308000001031C0130A0029A29F8077508031898
:10031800750FF90776080318760FFA077708031898
:10032800770FFB07000103180130A007F10DFC0B44
:100338006E29700DF80DF90DFA0DFB0DA00D74085E
:10034800711CB829F8027508031C750FF9027608A4
:10035800031C760FFA027708031C770FFB020001D3
:10036800031C0130A002C929F80775080318750F86
:10037800F90776080318760FFA0777080318770F36
:10038800FB07000103180130A007F00D0730FC003F
:10039800700DF80DF90DFA0DFB0DA00D7408701C09
:1003A800E729F8027508031C750FF9027608031C83
:1003B800760FFA027708031C770FFB020001031C73
:1003C8000130A002F829F80775080318750FF90716
:1003D80076080318760FFA0777080318770FFB07D4
:1003E800000103180130A007F00DFC0BCC29701890
:1003F8000B2A7408F80775080318750FF9077608AB
:100408000318760FFA0777080318770FFB07080019
:1004180083160313DF01E00100306002031D162A72
:100428000A305F020318212A5F085E078400203023
:100438008000DF0A0319E00A102A5F085E078400BB
:1004480080010130DF02031CE0035F085E078312AE
:10045800EF000A30F400F501F601F70183165A0897
:10046800F0005B08F1005C08F2005D08F3009420DE
:100478007808F0007908F1007A08F2007B08F300A8
:1004880030307007F4006F088400740880000A3068
:10049800F400F501F601F70183165A08F0005B082D
:1004A800F1005C08F2005D08F300942070088316E0
:1004B800DA007108DB007208DC007308DD00003028
:1004C800F4007306031D722A74087206031D722A4B
:1004D80074087106031D722A7008003A031D752AF4
:0E04E8007A2A0130DF02031CE003292A0800F3
:0E04F600831203136B088A006A088200080054
:10050400942A803083160313DA00A72AC030DA0055
:10051400A72A9430DA00A72AD430DA00A72A803038
:10052400DA00A72A831603135A08013A0319832A07
:100534005A08023A0319882A5A08033A03198B2ADB
:100544005A08043A03198E2A912A5B03F0005A08C8
:10055400F0077008DA007008E20034206C10EF0134
:100564006F0883165C07840000080319C32A8312EA
:100574006F0883165C0784000008E1008B20EF0AF3
:08058400B22A83126C14080076
:10058C0083120313A301A20122080B3C031CEB2AC8
:10059C002208B13E84000008203A0319E92A2208F7
:1005AC00B13E84000008003A0319E92A2308BD3E35
:1005BC00F1002208B13E84000008F00071088400AC
:1005CC0070088000A30AA20ACA2A0A302302031860
:1005DC00F62A2308BD3E840020308000A30AEB2AB3
:0605EC008316C80108009F
:1005F20083160313D401D5014D08D6004E08D70047
:100602004F08D8005008D90080305006F0008030E2
:100612007002031D162B00304F02031D162B0030F3
:100622004E02031D162B00304D0203183E2B0130E3
:10063200D4000030D500F401F501F601F7014D08B0
:10064200F0004E08F1004F08F2005008F300740861
:10065200D6007508D7007608D8007708D900700848
:10066200D6027108031C710FD7027208031C720FA5
:10067200D8027308031C730FD9025608DA00570810
:10068200DB005808DC005908DD005108DE000C22AE
:100692000B30D2000030D3005308003C031D532B13
:1006A2005208003C03186E2B52085107F200013029
:1006B2005202F0000030031C013E5302F1007008A8
:1006C200510784000008F00072088400700880005E
:1006D2000130D202031CD3034D2B51088400203079
:1006E20080005408550403198C2BD201D3015208FF
:1006F200510784000008203A031D832BD20A0319F4
:10070200D30A782B0130D202031CD30352085107BB
:0807120084002D308000080076
:10071A00831203132408A500A60180302606F000E0
:10072A0080307002031D9B2B00302502031CC72B4F
:10073A006908003A031DA22BC72B02308316DA0080
:10074A000130DB005D30DC00822230302507831661
:10075A00E1008B2029308316E1008B2088140630B3
:10076A00FB001330FC00AD30FD00FD0BBA2BFC0B77
:10077A00BA2BFB0BBA2B000000000130A502031CA8
:10078A00A603922B881002308316DA000130DB00B0
:08079A00A030DC0082220800FF
:1007A2008316031386118610061286120613861309
:1007B20083128611861086130613861206122720CC
:1007C2002720272086160616861532208611272016
:1007D2008615322086112720861532208611272081
:1007E20006128615322086112720861532208611A0
:1007F2008612861786153220861127208613061642
:10080200861532208611061286153220861127207F
:10081200861532208611061686153220861127206B
:1008220006128615322086118617061786160616B8
:0C08320086153220861127206C14080067
:10083E007B228A110A128000840AEA0A0319EB0A43
:08084E00F003031D1F2C08003C
:10085600F6258316031788018901831287138813E7
:100866008316031385010130860087010C3088004A
:1008760083128810061190308B0001308316950084
:10088600D12301308316E20034200C308316E200B7
:10089600342001308316DA000130DB004930DC00F9
:1008A600822202308316DA000130DB003830DC00A9
:1008B60082221530FB004B30FC00BE30FD00FD0BE4
:1008C600622CFC0B622CFB0B622C000002308316A0
:1008D600DA000130DB002730DC008222831259085F
:1008E6008316C90083125A088316CA0083125B084E
:1008F6008316CB0083125C088316CC00831259083A
:100906008316CD0083125A088316CE0083125B0825
:100916008316CF0083125C088316D000B130D10055
:10092600F922C6220230DA000830DB00BD30DC00D6
:1009360082226908013A031DFA2C59088316C90058
:1009460083125A088316CA0083125B088316CB00EB
:1009560083125C088316CC0080304C06F000803091
:100966007002031DC02C00304B02031DC02C00304A
:100976004A02031DC02C00304902031CF42C8312CA
:100986006908003A031DC82CF42C83164908CD00CB
:100996004A08CE004B08CF004C08D000B130D10039
:1009A600F922C6220230DA000830DB00BD30DC0056
:1009B60082220630FB001330FC00AD30FD00FD0B3B
:1009C600E22CFC0BE22CFB0BE22C000000000130B9
:1009D6008316C902031CCA02031CCB02031CCC02E9
:1009E600AF2C83126908013A031DFA2C8D2369087E
:1009F600003A031D962D8819472D8230FC00DD3004
:100A0600FD00FD0B042DFC0B042D000000008819D1
:100A1600472D83164908F0004A08F1004B08F200FA
:100A26004C08F300F00A0319F10A0319F20A031934
:100A3600F30A7008C9007108CA007208CB0073086F
:100A4600CC004908CD004A08CE004B08CF004C0820
:100A5600D000B130D100F922C6220230DA000830C7
:100A6600DB00BD30DC008222831649088312D900E0
:100A760083164A088312DA0083164B088312DB00BA
:100A860083164C088312DC000819962D8030F0007E
:100A9600803083164C067002031D5B2D4B08003C0C
:100AA600031D5B2D4A08003C031D5B2D4908003CD5
:100AB6000318962D8230FC00DD30FD00FD0B612D04
:100AC600FC0B612D0000000083120819962D0130E1
:100AD6008316C902031CCA02031CCB02031CCC02E8
:100AE6004908CD004A08CE004B08CF004C08D0007C
:100AF600B130D100F922C6220230DA000830DB001C
:100B0600BD30DC008222831649088312D900831681
:100B16004A088312DA0083164B088312DB00831619
:0A0B26004C088312DC00712C972D9F
:100BEC0022308400483083120313F0009D30EA0059
:100BFC000530EB001F24A030840011308312031346
:0E0C0C00F000E530EA000530EB001F24080080
:020B3A00003485
:020B3C00003483
:020B3E0007347A
:040B40000034003449
:100B44002034543469346D3465343A3420342034D8
:100B540020342034203420342034203420342034F1
:020B640000345B
:100B660020344C346F347634653420346C34693434
:100B7600763469346E3467342034663469347434B8
:020B8600003439
:100B880020345634693476346134663469347434C4
:100B98002034433479347034723475347334003407
:080BA8001E3400340034003457
:100BB00020344334683461346E346734653421340E
:080BC0002034203428340034F5
:020BC8000034F7
:100BCA002034543469346D3465343A342034203452
:100BDA00203420342034203420342034203420346B
:020BEA000034D5
:04400E00D22F0007A6
:00000001FF
