:040000008A15002835
:10000800FF00030E8301AD000A08AE008A017008E4
:10001800A1000C1C1A28A90A2908123A031D19283C
:1000280080308F008E01101690160C102108F000F9
:0E0038002E088A002D0E8300FF0E7F0E090099
:100046008312031341089300831614182C2800000A
:0A005600272883121308F0000800A9
:10006000831203133E0893008316141839280000E6
:0A007000342883121308F000080082
:10007A0083120313C0010713BE0D3E103E08C100D0
:0C008A0023203F08C100232007170800B6
:100096000E3083120313FD00FD0B4F2800000800ED
:1000A6008312031307113B08C1002320071508001C
:1000B60083120313F801F9011030FC00710DF80DDD
:1000C600F90D7408F8027508031C750FF902031878
:1000D60073287408F80775080318750FF9070310D5
:0A00E600F00DF10DFC0B612808007D
:1000F000C330831203139F05C0309F003B08F000FC
:10010000F00D7010F00D701070089F0483169F178B
:1001100083121F144B209F149F1C902800008C28D2
:100120001F101E08F100F00183161E08F0040030B5
:04013000F1040800CE
:0E013400831203132C088A002B088200080097
:10014200831203132230FC00F801F901FA01FB01CA
:10015200FC030319D7280310FB0CFA0CF90CF80C5A
:10016200F30CF20CF10CF00C031CA928FC0303198C
:10017200C9287408F80775080318750FF907760877
:100182000318760FFA0777080318770FFB07AD28D5
:100192007408F80775080318750FF907760803182D
:0E01A200760FFA0777080318770FFB0708009F
:1001B00083120313FB01FA01F901F801A001730D89
:1001C000F80D7408F8027508031C750FF90276081B
:1001D000031C760FFA027708031C770FFB0200015D
:1001E000031C0130A002F30D0730FC00730DF80D65
:1001F000F90DFA0DFB0DA00D7408731C1129F802FE
:100200007508031C750FF9027608031C760FFA02B5
:100210007708031C770FFB020001031C0130A002CA
:100220002229F80775080318750FF90776080318CF
:10023000760FFA0777080318770FFB0700010318FA
:100240000130A007F30DFC0BF628720DF80DF90D27
:10025000FA0DFB0DA00D7408731C4029F8027508F7
:10026000031C750FF9027608031C760FFA02770853
:10027000031C770FFB020001031C0130A00251296F
:10028000F80775080318750FF90776080318760F35
:10029000FA0777080318770FFB07000103180130EE
:1002A000A007F20D0730FC00720DF80DF90DFA0DE4
:1002B000FB0DA00D7408721C6F29F8027508031C51
:1002C000750FF9027608031C760FFA027708031CF3
:1002D000770FFB020001031C0130A0028029F80700
:1002E00075080318750FF90776080318760FFA07D3
:1002F00077080318770FFB07000103180130A007E8
:10030000F20DFC0B5429710DF80DF90DFA0DFB0DD2
:10031000A00D7408721C9E29F8027508031C750F45
:10032000F9027608031C760FFA027708031C770F90
:10033000FB020001031C0130A002AF29F807750879
:100340000318750FF90776080318760FFA07770870
:100350000318770FFB07000103180130A007F10D08
:100360000730FC00710DF80DF90DFA0DFB0DA00D15
:100370007408711CCD29F8027508031C750FF90269
:100380007608031C760FFA027708031C770FFB022E
:100390000001031C0130A002DE29F80775080318CC
:1003A000750FF90776080318760FFA077708031810
:1003B000770FFB07000103180130A007F10DFC0BBC
:1003C000B229700DF80DF90DFA0DFB0DA00D740892
:1003D000711CFC29F8027508031C750FF9027608D8
:1003E000031C760FFA027708031C770FFB0200014B
:1003F000031C0130A0020D2AF80775080318750FB9
:10040000F90776080318760FFA0777080318770FAD
:10041000FB07000103180130A007F00D0730FC00B6
:10042000700DF80DF90DFA0DFB0DA00D7408701C80
:100430002B2AF8027508031C750FF9027608031CB5
:10044000760FFA027708031C770FFB020001031CEA
:100450000130A0023C2AF80775080318750FF90748
:1004600076080318760FFA0777080318770FFB074B
:10047000000103180130A007F00DFC0B102A7018C2
:100480004F2A7408F80775080318750FF9077608DE
:100490000318760FFA0777080318770FFB07080091
:1004A00083120313BC01BD010713BB0D3B103B17A7
:1004B0003B08C10023203D08BE0030207008BC006E
:0804C00007173C08F0000800DA
:1004C800802A83120313BE019030BF003D20962A74
:1004D800BE017030BF003D20962ABE015030BF00DB
:1004E8003D20962ABE013030BF003D20962ABE012D
:1004F8001030BF003D20962A831203133B08013AAF
:100508000319652A3B08023A03196C2A3B08033A87
:100518000319712A3B08043A0319762A3B08053A5D
:0605280003197B2A080004
:10052E0083120313AF01B001B1010330BB0064228B
:10053E000E30BB0050227008B0003008AF00AF0C78
:10054E00AF130130AF050530FB000F30FC00F1306A
:10055E00FD00FD0BB02AFC0BB02AFB0BB02A2F08B6
:10056E00003A03199F2AB0140E30BE003008BF00A7
:04057E003D20080014
:1005820083120313AF01B001B101B101083031028E
:100592000318E12A0130BB00782070088312AF07EC
:1005A20071080318013EB0070D30FC00FB30FD005E
:1005B200FD0BD92AFC0BD92A00000000B10AC72A78
:1005C2000830F4000030F5002F08F0003008F10088
:1005D2005B207008AF007108B00001303002031DCB
:1005E200F42A36302F020318F92A0130A400FA2A1D
:0A05F200A4011F10AF01B0010800C2
:1005FC000A3083120313BB0053202508BB00532081
:10060C002608BB0053202408BB0053200230BB003B
:10061C0053200130BB005320A701AA010130BB00BD
:10062C0064222A08003A031D382B0E30BB005022DE
:10063C007008A7000530F0002708AA0070080319FD
:10064C002B2BAA0CAA13FF3E252B0130AA05033035
:10065C00FC009730FD00FD0B312BFC0B312B000007
:10066C000000172BDF30A7050E30BE002708BF0097
:04067C003D20080015
:100680000A3083120313BB0053208030F000803007
:10069000003A7002031D4E2B05302802031C602B0C
:1006A0002508BB0053202608BB0053202408BB00AC
:1006B00053200130BB0053200130BB0053206F2B6F
:1006C0002508BB0053202608BB0053202408BB008C
:1006D00053200130BB005320CB30BB005320A70177
:1006E000AA010130BB0064222A08003A031D952BA1
:1006F0000E30BB0050227008A7000530F00027081C
:10070000AA0070080319882BAA0CAA13FF3E822B9B
:100710000130AA050330FC009730FD00FD0B8E2B45
:10072000FC0B8E2B00000000742BDF30A7050E3071
:0A073000BE002708BF003D200800AE
:10073A0083120313AF01B001B101B201B301B401D5
:10074A00B501B601B70186148230FC00DD30FD0028
:10075A00FD0BAD2BFC0BAD2B00000000B7010830E0
:10076A0037020318662C0C30BB00782070088312FD
:10077A00AF007108B000B101B2019B30F000F10185
:10078A00F201F3017008AF027108031C710FB00285
:10079A007208031C720FB1027308031C730FB202B2
:1007AA004230F0000130F100F201F3012F08F400A9
:1007BA003008F5003108F6003208F700A12064304D
:1007CA00F400F501F601F701D8207008AF007108AE
:1007DA00B0007208B1007308B2000A30F400F501E3
:1007EA00F601F7012F08F0003008F1003108F20095
:1007FA003208F300D8207808F0007908F1007A0866
:10080A00F2007B08F3007308003C031D162C7208E3
:10081A00003C031D162C7108003C031D162C7008A1
:10082A00043C0318362C0A30F400F501F601F701EE
:10083A002F08F0003008F1003108F2003208F30006
:10084A00D8207008AF007108B0007208B1007308B0
:10085A00B200AF0A0319B00A0319B10A0319B20A9E
:10086A004C2C0A30F400F501F601F7012F08F000CC
:10087A003008F1003108F2003208F300D82070087D
:10088A00AF007108B0007208B1007308B2002F08F7
:10089A00B30730080318300FB40731080318310FB3
:1008AA00B50732080318320FB6070D30FC00FB30CB
:1008BA00FD00FD0B5E2CFC0B5E2C00000000B70A4D
:1008CA00B42B3308F0003408F1003508F20036087A
:1008DA00F3000A30F400F501F601F701A1207008CF
:1008EA00B3007108B4007208B5007308B600083086
:1008FA00F400F501F601F7013308F0003408F100BD
:10090A003508F2003608F300D8207008B3007108E1
:10091A00B4007208B5007308B6000A30F400F50195
:10092A00F601F7013308F0003408F1003508F20047
:10093A003608F300D8207808F0007908F1007A0820
:10094A00F2007B08F3007308003C031DB62C720802
:10095A00003C031DB62C7108003C031DB62C700820
:10096A00043C0318D12C0A30F400F501F601F70112
:10097A003308F0003408F1003508F2003608F300B5
:10098A00D8207008B3007108B4007208B500730863
:10099A00B600330AA600E92C0A30F400F501F60184
:1009AA00F7013308F0003408F1003508F200360880
:1009BA00F300D8207008B3007108B4007208B500BB
:1009CA007308B6003308A60086101F10B301B401DD
:0E09DA00B501B601AF01B001B101B2010800D4
:1009E8008312031385176830FC00E430FD00FD0B0B
:1009F800FB2CFC0BFB2C000085136830FC00E4305A
:0E0A0800FD00FD0B052DFC0B052D0000080068
:100A16009A208A110A128000840AAB0A0319AC0ACA
:080A2600F003031D0B2D080075
:100A2E0083160313871283122F08043A031D222DF7
:100A3E0083168715242D83168711071683129401AA
:100A4E002F089404310894043008831694048312FA
:100A5E0031080319392D3208003A031D382D83163B
:100A6E0014173F2D8312320803193F2D83161417C6
:060A7E008312941608002B
:100A840083120313AF01B001B101B201B301B40188
:100A9400B501B601B701B801B901BA010616823031
:100AA400FC00DD30FD00FD0B552DFC0B552D000029
:100AB4000000B001083030020318752E0D30BB0061
:100AC400782070088312A2007108A300003023026A
:100AD400031D6E2D2D3022020318762D3008333E6F
:100AE4008400FA308000692E00302302031D7C2D1F
:100AF400483022020318842D3008333E840023300A
:100B04008000692E00302302031D8A2D61302202E9
:100B14000318922D3008333E84001E308000692E65
:100B240000302302031D982D853022020318A02DC6
:100B34003008333E84002D308000692E00302302BB
:100B4400031DA62DA63022020318AE2D3008333E15
:100B5400840028308000692E00302302031DB42D48
:100B6400D13022020318BC2D3008333E84003730C4
:100B74008000692E00302302031DC22DFB302202A7
:100B84000318CA2D3008333E840041308000692E9A
:100B940001302302031DD02D213022020318D82D49
:100BA4003008333E840032308000692E0130230245
:100BB400031DDE2D4F3022020318E62D3008333E8C
:100BC40084004B308000692E01302302031DEC2D7C
:100BD4007A3022020318F42D3008333E84003C306E
:100BE4008000692E01302302031DFA2DA930220250
:100BF4000318022E3008333E840055308000692EDD
:100C040001302302031D082EDC3022020318102EAB
:100C14003008333E840046308000692E02302302BF
:100C2400031D162E0A30220203181E2E3008333EEE
:100C340084005F308000692E02302302031D242EBD
:100C44004130220203182C2E3008333E84005030E9
:100C54008000692E02302302031D322E72302202DC
:100C640003183A2E3008333E8400C8308000692EC1
:100C740002302302031D402EAA3022020318482EFC
:100C84003008333E84005A308000692E033023023A
:100C9400031D4E2E053022020318562E3008333E13
:100CA400840064308000692E03302302031D5C2E0F
:100CB400983022020318642E3008333E8400C83072
:100CC4008000692E3008333E8400250880000D30F2
:100CD400FC00FB30FD00FD0B6D2EFC0B6D2E0000A7
:100CE4000000B00A5C2DAF01B1010530B20032083A
:100CF40031020318A42E05302F020318A22EB001CE
:100D0400083030020318952E2F08333E8400000863
:100D1400F1003008333E840071080006031D932E51
:100D2400B10AB00A822E32083102031C9F2E2F080A
:100D3400333E84000008A500A12EB101AF0A7D2E28
:0E0D4400B203792E06121F10A201A3010800AF
:100D52001B3083120313BE00BF013D200330BB00D2
:100D620064220130BE008C30BF003D200230BE0044
:100D72000330BF003D200330BE006330BF003D2082
:100D82000430BE000C30BF003D200530BE000230F2
:100D9200BF003D200630BE007730BF003D20073047
:100DA200BE005F30BF003D200830BE002430BF00CF
:100DB2003D200930BE007730BF003D200A30BE0022
:100DC2005F30BF003D200B30BE002430BF003D200D
:100DD2000C30BE003830BF003D200D30BE00083060
:100DE200BF003D200E30BE001130BF003D200F304D
:100DF200BE00BF013D201030BE00A530BF003D2027
:100E02001130BE003830BF003D201230BE003830F5
:100E1200BF003D201330BE000730BF003D2014301C
:100E2200BE00BF013D201530BE00BF013D2016307F
:100E3200BE00CC30BF003D201730BE00CC30BF001A
:100E42003D201830BE00CC30BF003D201930BE001E
:100E5200CC30BF003D201A30BE007030BF003D20B4
:100E62001B30BE003C30BF003D201C30BE000630AF
:100E7200BF003D201D30BE000A30BF003D201E30A5
:100E8200BE005A30BF003D201F30BE00BF013D20D2
:020E9200080056
:1010000083120313A201A301A401A501A601A70154
:10101000A801A901AA010230831603178800303005
:1010200089000230031385002130860013308700C9
:1010300086100614831285018601713083168F0095
:101040008312071707158316071307118B170B1742
:101050008B128312031787138813831603139713B6
:101060000C140B178B178312901410139015101576
:1010700010108F018E01101690168230FC00DD30AA
:10108000FD00FD0B4128FC0B4128000000008A11E7
:10109000F4248A158A11F4248A150130AF00B001B6
:1010A000B1010130B2008A1117258A150230FB0008
:1010B0000430FC00BA30FD00FD0B5C28FC0B5C2802
:1010C000FB0B5C2800008A11A9268A150430BB009E
:1010D0008A1164228A152730FC00F530FD00FD0BD3
:1010E0006F28FC0B6F288A119D238A158A114225CF
:1010F0008A158A11C1228A150430BB008A11642224
:101100008A152730FC00F530FD00FD0B8528FC0B0F
:1011100085288A1197228A158A1140238A158A11F7
:10112000F4248A150430BB008A1164228A158030A9
:10113000F0008030003A7002031DA028053028021C
:10114000031CB8281A30FB005E30FC006E30FD0036
:10115000FD0BA828FC0BA828FB0BA82800008A116F
:1011600097228A158A11FE228A158A11F4248A157B
:101170000530BB008A1164228A158030F00080306F
:10118000003A7002031DC62805302802031CD82827
:1011900010148030F0008030003A7002031DD22815
:1011A000133029020318D6286300C928A901FE2894
:1011B0002430FB008330FC00CF30FD00FD0BDE2827
:1011C000FC0BDE28FB0BDE28A80A10108030F00094
:1011D0008030003A7002031DEF2805302802031CFE
:1011E000FE288A11F4248A158A11F4248A158A119A
:1011F000F4248A158A11F4248A1510147328FF2800
:04400E00D4200006B4
:00000001FF
