:02000000672B6C
:10000800FF00030E8301EB000A08EC008A010C1CB8
:100018001328BF0A0319C00A0C108F018E016C083F
:0C0028008A006B0E8300FF0E7F0E0900A3
:06003400000000000800BE
:0E003A00213083120313FD00FD0B2128080066
:100048000F3083120313FC004730FD00FD0B2A28F4
:0A005800FC0B2A280000000008003D
:1000620083120317961B3828031388133A280313A5
:1000720088170317161B402803130813422803137B
:1000820008170317961A4828031388124A280313DD
:1000920088160317161A502803130812522803133E
:1000A20008166D18562888155728881187171A20A0
:1000B2008713031796196028031388136228031302
:1000C2008817031716196828031308136A280313DD
:1000D200081703179618702803138812722803133F
:1000E2008816031716187828031308127A280313A0
:1000F20008166D187E2888157F28881187171A2000
:0E01020087136D1C8628242087281D200800E6
:1001100083120313FB01FA01F901F801A001730D29
:10012000F80D7408F8027508031C750FF9027608BB
:10013000031C760FFA027708031C770FFB020001FD
:10014000031C0130A002F30D0730FC00730DF80D05
:10015000F90DFA0DFB0DA00D7408731CC128F802EF
:100160007508031C750FF9027608031C760FFA0256
:100170007708031C770FFB020001031C0130A0026B
:10018000D228F80775080318750FF90776080318C1
:10019000760FFA0777080318770FFB07000103189B
:1001A0000130A007F30DFC0BA628720DF80DF90D18
:1001B000FA0DFB0DA00D7408731CF028F8027508E9
:1001C000031C750FF9027608031C760FFA027708F4
:1001D000031C770FFB020001031C0130A002012960
:1001E000F80775080318750FF90776080318760FD6
:1001F000FA0777080318770FFB070001031801308F
:10020000A007F20D0730FC00720DF80DF90DFA0D84
:10021000FB0DA00D7408721C1F29F8027508031C41
:10022000750FF9027608031C760FFA027708031C93
:10023000770FFB020001031C0130A0023029F807F0
:1002400075080318750FF90776080318760FFA0773
:1002500077080318770FFB07000103180130A00788
:10026000F20DFC0B0429710DF80DF90DFA0DFB0DC3
:10027000A00D7408721C4E29F8027508031C750F36
:10028000F9027608031C760FFA027708031C770F31
:10029000FB020001031C0130A0025F29F80775086A
:1002A0000318750FF90776080318760FFA07770811
:1002B0000318770FFB07000103180130A007F10DA9
:1002C0000730FC00710DF80DF90DFA0DFB0DA00DB6
:1002D0007408711C7D29F8027508031C750FF9025A
:1002E0007608031C760FFA027708031C770FFB02CF
:1002F0000001031C0130A0028E29F80775080318BD
:10030000750FF90776080318760FFA0777080318B0
:10031000770FFB07000103180130A007F10DFC0B5C
:100320006229700DF80DF90DFA0DFB0DA00D740882
:10033000711CAC29F8027508031C750FF9027608C8
:10034000031C760FFA027708031C770FFB020001EB
:10035000031C0130A002BD29F80775080318750FAA
:10036000F90776080318760FFA0777080318770F4E
:10037000FB07000103180130A007F00D0730FC0057
:10038000700DF80DF90DFA0DFB0DA00D7408701C21
:10039000DB29F8027508031C750FF9027608031CA7
:1003A000760FFA027708031C770FFB020001031C8B
:1003B0000130A002EC29F80775080318750FF9073A
:1003C00076080318760FFA0777080318770FFB07EC
:1003D000000103180130A007F00DFC0BC0297018B4
:1003E000FF297408F80775080318750FF9077608D0
:1003F0000318760FFA0777080318770FFB07080032
:0E0400008312031342088A004108820008009C
:10040E00831203136D1003171508960031206D1417
:02041E000800D4
:1004200083160313EC01ED0100306D02031D1A2A3F
:100430000A306C020318292A6C0883120317140768
:1004400084002030800083160313EC0A0319ED0AA0
:10045000142A6C08831203171407840080010130EA
:1004600083160313EC02031CED036C0883120317BD
:10047000140783160313EE000A30F400F501F601A9
:10048000F701831203171008F0001108F100120899
:10049000F2001308F30088207808F0007908F100D2
:1004A0007A08F2007B08F30030307007F4008316FE
:1004B0006E088400740880000A30F400F501F6012B
:1004C000F701831203171008F0001108F100120859
:1004D000F2001308F30088207008031790007108D9
:1004E000910072089200730893000030F4007306C4
:1004F000031D842A74087206031D842A7408710679
:10050000031D842A7008003A031D872A8E2A0130B1
:0E05100083160313EC02031CED03352A0800CA
:10051E00A12A803083160313EC00B42AC030EC00FD
:10052E00B42A9430EC00B42AD430EC00B42A8030D3
:10053E00EC00B42A831603136C08013A0319902AAF
:10054E006C08023A0319952A6C08033A0319982A83
:10055E006C08043A03199B2A9E2A6D03F0006C085E
:10056E00F0077008EC007008831203179600312014
:10057E006D108316EF016F086E07840000080319D3
:10058E00D32A6F086E0784000008831203179500A4
:0E059E0007228316EF0AC22A83126D1408008A
:1005AC00831203132230FC00F801F901FA01FB015C
:1005BC00FC0303190C2B0310FB0CFA0CF90CF80CB4
:1005CC00F30CF20CF10CF00C031CDE2AFC030319E7
:1005DC00FE2A7408F80775080318750FF9077608D2
:1005EC000318760FFA0777080318770FFB07E22A30
:1005FC007408F80775080318750FF90776080318BF
:0E060C00760FFA0777080318770FFB07080030
:10061A008316031387138811081288120813881384
:10062A00831287138811881308138812081224204A
:10063A00242024208816081687171A2087132420B6
:10064A0087171A208713242087171A208713242034
:10065A00081287171A208713242087171A2087134E
:10066A008812881787171A208713242088130816D8
:10067A0087171A208713081287171A20871324202E
:10068A0087171A208713081687171A20871324201A
:10069A00081287171A20871388170817881608164A
:0C06AA0087171A20871324206D14080005
:1006B60000228A110A128000840AC10A0319C20A9A
:0806C600F003031D5B2B08008B
:1006CE0083120313A101A201A301A401A501A60196
:1006DE00A701A8014330A9006130AA007030AB0019
:1006EE006130AC006330AD006930AE007430AF00E5
:1006FE006130B0006E30B1006330B2006530B300CF
:10070E00B4014D30B5006530B6007430B7006530B9
:10071E00B8007230B900BA01BB01BC01BD01BE0107
:10072E00BF01C0010A3083160317880089010B3000
:10073E00031385008601870188018901831207133F
:10074E00880185018901713083168F0083120C1088
:10075E0090109012101283160C148B170B17831215
:10076E0003178717871607110714871007160D230F
:10077E0001300317960031200C30031796003120FC
:10078E0001308316EC000130ED002930EE008F228F
:10079E0002308316EC000130ED003530EE008F2272
:1007AE000230FB008630FC009930FD00FD0BDD2B86
:1007BE00FC0BDD2BFB0BDD2B0130031796003120DC
:1007CE008316E9018030F0008030003A7002031D7C
:1007DE00F22B1430690203185D2C8312BB01BC018D
:1007EE00BD01BE01BF01C0018F018E01091410149D
:1007FE000317071B032CFF2B031310104008F900DF
:10080E003F08F800F601F7010F08F500F40174082F
:10081E00F0007508F100F201F3017608F007770891
:10082E000318770FF10778080318780FF207790885
:10083E000318790FF3070E08F400F501F601F7011E
:10084E007008F40771080318710FF5077208031882
:10085E00720FF60773080318730FF7077408BB00BF
:10086E007508BC007608BD007708BE0083166908BF
:10087E00F000F00D70107008A03E84007408800027
:10088E007508840A8000831209100B30FB00263095
:10089E00FC005D30FD00FD0B522CFC0B522CFB0BB3
:1008AE00522C000000008316E90AE92BE901803082
:1008BE00F0008030003A7002031D672C143069027C
:1008CE000318742C6908433E8400013080006908C7
:1008DE00573E84008001E90A5E2CEA018030F00068
:1008EE008030003A7002031D7E2C14306A02031809
:1008FE00C72C6A08433E84000008013A031DC52C2C
:10090E006A08EB008030F0008030003A7002031D60
:10091E00922C14306B020318C52C6A08F000F00DEF
:10092E0070107008A03E84000008F300840A0008CE
:10093E00F4006B08F000F00D70107008A03E8400FB
:10094E000008F100840A0008F20074087206031D04
:10095E00B22C71087306031DC32C6A08573EF100B2
:10096E0071088400000AF00071088400700880008D
:10097E006B08433E84008001EB0A892CEA0A752C31
:10098E00EA010130EB008030F0008030003A700256
:10099E00031DD32C14306B020318E52C6A08573E46
:1009AE0084000008F1006B08573E840000087102B5
:1009BE000318E32C6B08EA00EB0ACA2C6A08F00055
:1009CE00F00D70107008A03E840000088312BB006A
:1009DE00840A0008BC00BD01BE010030BD00BE008F
:1009EE003B08F0003C08F1003D08F2003E08F30021
:1009FE00D130F4000230F500F601F701D62270086E
:100A0E00A5007108A6007208A7007308A800831637
:100A1E00EA010130EB008030F0008030003A7002C5
:100A2E00031D1B2D14306B020318412D6A08F000B4
:100A3E00F00D70107008A03E84000008F300840AC8
:100A4E000008F4006B08F000F00D70107008A03E66
:100A5E0084000008F100840A0008F2007208740293
:100A6E00031D3B2D7108730203183F2D6B08EA001E
:100A7E00EB0A122D6A08F000F00D70107008A03EFF
:100A8E00840000088312A100840A0008A200A301BA
:100A9E00A4010030A300A4003B0803179000031329
:100AAE003C080317910003133D080317920003132C
:100ABE003E0803179300C8309400102283120313CC
:100ACE00EF01EE010B306E020318832D6E08C83E47
:100ADE0084000008203A0319812D6F08DE3EF100D4
:100AEE006E08C83E84000008F0007108840070088B
:100AFE008000EF0AEE0A692D2108031790000313F8
:100B0E0022080317910003132308031792000313FF
:100B1E00240803179300D33094001022831203137A
:100B2E00EF01EE010B306E020318B32D6E08C83EB6
:100B3E0084000008203A0319B12D6F08DE3EF10043
:100B4E006E08C83E84000008F0007108840070082A
:100B5E008000EF0AEE0A992D01300317960031201E
:100B6E0001308316EC000130ED00C830EE008F220C
:100B7E0002308316EC000130ED00D330EE008F22F0
:040B8E00E72BC82D5C
:04400E00D42C0007A7
:00000001FF
