:040000008A15DB2959
:10000800FF00030E8301BE000A08C1008A017008C0
:10001800A0008B1C15280130A8000130BB00B901D5
:100028008B100C1C3128B20A0319B30A0C102F08C4
:10003800003C031D21282E08013C031831283308F1
:100048002F06031D29282E083206031D31282208F1
:100058008F0021088E00101690162008F000410825
:0C0068008A003E0E8300FF0E7F0E090090
:10007400831203134E0893008316141843280000B8
:0A0084003E2883121308F000080064
:10008E00831203134B089300831614185028000094
:0A009E004B2883121308F00008003D
:1000A80083120313CD010811CB0D4B104B08CE0062
:0C00B8003A204C08CE003A200815080041
:1000C4004F2D75288312031711178828031711134E
:1000D4008828031710178828031710138828031774
:1000E400111310138828031383124908013A0319C2
:1000F40064284908023A031968284908033A03198D
:100104006B284908043A03196E287128652D902834
:10011400031790159628031790119628031349087E
:10012400013A03198A288D28652DA52A03179214EC
:1001340092189E2812139F2812171012101AA4281E
:100144009012A5289016901AA9289211AA289215FF
:100154009219AE281211AF2812151219B32892124F
:10016400B4289216EB2A031712151219BB28921100
:10017400BC2892159219C0281012C1281016101A02
:10018400C5281213C6281217121BCA289212CB288C
:1001940092169012901AD0289210D1289214EB2A19
:1001A400031712151219D8289210D92892149218EC
:1001B400DD281012DE281016101AE2281213E32884
:1001C4001217121BE7289212E82892169012901A1E
:1001D400ED289211EE289215EB2A03179214921827
:1001E400F5281213F6281217121BFA281012FB28EE
:1001F4001016101AFF2890120029901692119219C5
:10020400052912110629121512190A2992120B290D
:100214009216EB2A03171215121912299210132998
:10022400921492181729101218291016101A1C2942
:1002340090121D299016901A2129921222299216A1
:10024400921192192729121328291217EB2A03173E
:100254001016101A2F29921030299214921834294A
:100264001211352912151219392992113A299215A8
:1002740092193E2990123F299016901A43299212FE
:10028400442992161213EB2A0317921492184C293C
:1002940012134D291217121B512992125229921628
:1002A4001012101A5729901258299016901A5C2986
:1002B40092115D2992159219612912116229121560
:1002C400EB2A03171016101A692990126A2990163E
:1002D400901A6E2992116F2992159219732912118D
:1002E40074291215121978299210792992149218E6
:1002F4007D2912137E291217121B82299212832937
:100304009216EB2A03171016101A8A2990128B29B9
:100314009016901A8F2912119029121512199429E6
:100324009210952992149218992912139A29121746
:10033400121B9E2992129F2992169211EB2A0317DF
:100344001016101AA7299012A8299016901AAC29F1
:100354009211AD2992159219B1299210B2299214D1
:100364009218B6291213B7291217121BBB2992121D
:10037400BC2992161211EB2A03171016101AC4295D
:100384009012C5299016901AC9299211CA2992155A
:100394009219CE291211CF2912151219D3299210AC
:1003A400D42992141213121BD9299212DA29921603
:1003B400EB2A03179016901AE1299211E22992155B
:1003C4009219E6291211E72912151219EB29921232
:1003D400EC2992161012101AF1299210F229921493
:1003E4009218F6291213F7291217EB2A031710167D
:1003F400101AFE299211FF2992159219032A12113B
:10040400042A12151219082A9210092A9214921811
:100414000D2A12130E2A12179012EB2A0317101624
:10042400101A162A9012172A9016901A1B2A921143
:100434001C2A92159219202A1211212A1215121916
:10044400252A9212262A9216921092182B2A1213F7
:100454002C2A1217EB2A03171016101A332A90129B
:10046400342A9016901A382A9211392A9215921920
:100474003D2A92123E2A921612111219432A921000
:10048400442A92149218482A1213492A1217EB2A62
:10049400031710169012901A512A9211522A92158B
:1004A4009219562A1211572A121512195B2A921000
:1004B4005C2A92149218602A1213612A1217121BD2
:1004C400652A9212662A9216EB2A03179016901A3E
:1004D4006D2A92116E2A92159219722A1211732A98
:1004E40012151219772A9210782A921492187C2ADB
:1004F40012137D2A1217121B812A9212822A921633
:100504001012EB2A03171012101A8A2A90128B2A3F
:100514009016901A8F2A9211902A92159219942A61
:100524001211952A12151219992A92109A2A9214C4
:1005340092189E2A12139F2A1217121BA32A921290
:10054400A42A9216EB2A03134908013A031998289E
:100554004908023A0319B5284908033A0319D2286D
:100564004908043A0319EF284908053A03190C29E4
:100574004908063A031929294908073A031946295B
:100584004908083A031963294908093A03198429CF
:1005940049080A3A0319A12949080B3A0319BE2943
:1005A40049080C3A0319DB2949080D3A0319F829BB
:1005B40049080E3A0319102A49080F3A03192D2A3B
:1005C4004908103A03194A2A4908003A0319672AC4
:1005D400842A652DFA2C03171216121AF32A911382
:1005E400F42A91179112911AF92A1112FA2A111662
:1005F400111AFE2A1011FF2A10151019032B90103E
:10060400042B90149018082B9013092B9017402D4D
:10061400031790149018102B1011112B101510198A
:10062400152B9112162B9116911A1A2B91131B2B21
:100634009117911B1F2B9013202B90171112111A35
:10064400252B1212262B1216402D031790149018E6
:100654002D2B12122E2B1216121A322B9112332B0F
:100664009116911A372B9113382B9117911B3C2B10
:1006740090133D2B90171112111A422B1011432B7A
:100684001015402D03171216121A4A2B91134B2BD7
:100694009117911B4F2B9112502B9116911A542B99
:1006A4001112552B1116101110195A2B90105B2B87
:1006B400901490185F2B9013602B9017402D031704
:1006C40090149018672B1212682B1216121A6C2BA6
:1006D40091126D2B9116911A712B1112722B111606
:1006E400111A762B9013772B9017101110197C2B5D
:1006F40091137D2B9117402D03179116911A842B7A
:100704001212852B1216121A892B90108A2B901410
:1007140090188E2B10118F2B10151019932B11126A
:10072400942B1116111A982B9013992B901791133F
:10073400402D03171216121AA12B9113A22B9117F5
:10074400911BA62B9013A72B90179112911AAC2BE7
:100754001112AD2B1116111AB12B1011B22B101549
:100764001019B62B9010B72B9014402D0317911627
:10077400911ABE2B1112BF2B1116111AC32B101173
:10078400C42B10151019C82B9010C92B9014901855
:10079400CD2B1212CE2B1216121AD22B9113D32B4D
:1007A4009117911BD72B9013D82B9017402D03171B
:1007B4009116911ADF2B1112E02B1116111AE42B4A
:1007C4009010E52B90149018E92B1212EA2B1216B4
:1007D400121AEE2B9113EF2B9117911BF32B9013FD
:1007E400F42B90171011402D03179116911AFC2B1E
:1007F4001112FD2B1116111A012C1011022C1015B7
:100804001019062C1212072C1216121A0B2C911303
:100814000C2C9117911B102C9013112C90179010E5
:10082400402D03179116911A192C11121A2C111616
:10083400111A1E2C10111F2C10151019232C901096
:10084400242C90149018282C1212292C121691136F
:10085400911B2E2C90132F2C9017402D031711163B
:10086400111A362C1011372C101510193B2C90101E
:100874003C2C90149018402C9013412C90179112FA
:10088400911A462C1212472C1216121A4B2C911341
:100894004C2C9117402D03179116911A532C1011BB
:1008A400542C10151019582C9010592C9014901881
:1008B4005D2C12125E2C1216121A622C9113632CE8
:1008C40091171112402D03179116911A6B2C1112C6
:1008D4006C2C1116111A702C1011712C1015101982
:1008E400752C9010762C901490187A2C90137B2CE5
:1008F40090171212121A802C9113812C9117402DEB
:1009040003179116911A882C1112892C1116111A99
:100914008D2C10118E2C10151019922C9013932CD1
:10092400901790109018982C1212992C1216121AD3
:100934009D2C91139E2C9117402D03179116111283
:10094400111AA62C1011A72C10151019AB2C9010ED
:10095400AC2C90149018B02C1212B12C1216121A3E
:10096400B52C9113B62C9117911BBA2C9013BB2C58
:100974009017402D03171116111AC22C1011C32CF5
:1009840010151019C72C9010C82C90149018CC2C4A
:100994001212CD2C1216121AD12C9113D22C91179B
:1009A400911BD62C9013D72C90179112402D03171E
:1009B4009112911ADF2C1112E02C1116111AE42C49
:1009C4001011E52C10151019E92C9010EA2C901434
:1009D4009018EE2C1212EF2C1216121AF32C9113FB
:1009E400F42C9117911BF82C9013F92C9017402D8F
:1009F40003134908013A0319ED2A4908023A031975
:100A04000A2B4908033A0319272B4908043A031906
:100A1400442B4908053A0319612B4908063A03197E
:100A24007E2B4908073A03199B2B4908083A0319F6
:100A3400B82B4908093A0319D92B49080A3A03196A
:100A4400F62B49080B3A0319132C49080C3A0319DD
:100A5400302C49080D3A03194D2C49080E3A031954
:100A6400652C49080F3A0319822C4908103A0319D6
:100A74009F2C4908003A0319BC2CD92C652D482D0C
:100A8400031792174E2D031792134E2D0313490883
:100A9400113A0319422D452D652D8312031348087D
:100AA400003A031963284808013A031989284808B9
:100AB400033A031997284808023A0319EC2A48080C
:080AC400043A0319412D08005A
:100ACC000E3083120313FD00FD0B6A2D000008008D
:100ADC008A2D83120313CB019030CC005420A02D0F
:100AEC00CB017030CC005420A02DCB015030CC0069
:100AFC005420A02DCB013030CC005420A02DCB01A4
:100B0C001030CC005420A02D831203134808013A56
:100B1C0003196F2D4808023A0319762D4808033A39
:100B2C0003197B2D4808043A0319802D4808053A0F
:100B3C000319852D8230FC00DD30FD00FD0BA42D4A
:0A0B4C00FC0BA42D000000000800BF
:100B560083120313C901CA010811C80D48104817AA
:100B66004808CE003A204A08CB0047207008C90042
:080B760008154908F000080011
:100B7E0083120313F801F9011030FC00710DF80D0A
:100B8E00F90D7408F8027508031C750FF9020318A5
:100B9E00D72D7408F80775080318750FF907031099
:0A0BAE00F00DF10DFC0BC52D080041
:100BB80083120313C601C70106304702031DE62D41
:100BC800D63046020318F62D20308606C60A0319C9
:100BD800C70A0230FC004B30FD00FD0BF12DFC0B69
:080BE800F12DE02D861208003A
:100BF00083120313C601C7010330C8006E250E30EF
:100C0000CB001930CC0054200E30C800AB25700842
:100C1000C7004708C600C60CC6130130C6053430ED
:100C2000FC00F130FD00FD0B132EFC0B132E000019
:100C300000004608003A0319FC2DC7140E30CB0003
:080C40004708CC005420080015
:0E0C48008312031340088A003F088200080050
:100C5600831203132808003A031D732E0130C800BF
:100C66006430F4000030F5003C08F0003D08F10067
:100C7600BF257008C9006220023083120313C80022
:100C86000A30F4000030F5003C08F0003D08F100A1
:100C9600BF250A30F4000030F500BF257808F000C3
:100CA6007908F1007008C90062200330831203132B
:100CB600C8000A30F4000030F5003C08F0003D089A
:100CC600F100BF257808F0007908F1007008C90026
:100CD6006220043083120313C800C9016220092F61
:100CE600013083120313C8006430F4000030F500AD
:100CF6003408F0003508F100BF257008C9006220ED
:100D0600023083120313C8000A30F4000030F500E5
:100D16003408F0003508F100BF250A30F400003031
:100D2600F500BF257808F0007908F1007008C900C1
:100D36006220033083120313C8000A30F400003027
:100D4600F5003408F0003508F100BF257808F000FA
:100D56007908F1007008C900622004308312031379
:100D6600C8001130C900622083120313A80106309F
:100D7600FB001330FC00AD30FD00FD0BC02EFC0B5C
:100D8600C02EFB0BC02E000000000130C8006430EE
:100D9600F4000030F5003C08F0003D08F100BF25E6
:100DA6007008C9006220023083120313C8000A309B
:100DB600F4000030F5003C08F0003D08F100BF25C6
:100DC6000A30F4000030F500BF257808F0007908F5
:100DD600F1007008C9006220033083120313C800B3
:100DE6000A30F4000030F5003C08F0003D08F10040
:100DF600BF257808F0007908F1007008C900622064
:0E0E0600043083120313C800C90162200800E3
:100E1400C330831203139F0540309F05F0308316BF
:100E24009F0483129F174608F000F00D7010F00D18
:100E3400701070089F041F1466259F149F1C242F94
:100E44000000202F1F101E08F100F00183161E0859
:080E5400F0040030F104080075
:100E5C0083120313C201C3018710CB014720700812
:0A0E6C00C20087144208F0000800DD
:100E76000030831203133D02031D432F23303C022F
:100E8600031C4E2F3D08003C031D4B2F3C08643CC1
:100E9600031C4E2FBB0100303D06031D542FC830E6
:100EA6003C06031D5D2F0130B9006430BC000030E4
:100EB600BD005E2FB9013D08003C031D642F3C08B0
:100EC6001E3C03186B2F3908013A03196B2F702F3C
:0C0ED6003B08003A031D702FDC250800CB
:100EE20083120313C201C301C401C40108304402C6
:100EF2000318912F0230C6000A2770088312C20716
:100F020071080318013EC3070D30FC00FB30FD00E1
:100F1200FD0B892FFC0B892F00000000C40A772FDC
:100F22000830F4000030F5004208F0004308F100F8
:100F3200BF257008C2007108C30001304302031DBF
:100F4200A42FF13042020318A92F0130B700AA2FB3
:0A0F5200B7011F10C201C30108001F
:100F5C00831203133708013A0319B92F3808013AE1
:100F6C000319B92FBE2FC8010330C9006220C42F4A
:0E0F7C0083120313C8010430C900622008006C
:100F8A0083160313071283124208043A031DD02F53
:100F9A0083160717D22F8316071387178312940114
:100FAA004208940444089404430883169404831260
:100FBA0044080319E72F4508003A031DE62F831654
:100FCA001417ED2F831245080319ED2F83161417F2
:060FDA00831294160800CA
:100FE00024268A110A128000840ABF0A0319C00A43
:080FF000F003031DF02F0800BF
:10100000013083120313C8003230C9008A116220F4
:101010008A15023083120313C8003230C9008A11C6
:1010200062208A15033083120313C8003230C900CE
:101030008A1162208A15043083120313C8003230EB
:10104000C9008A1162208A15023083120313FB0043
:101050000430FC00BA30FD00FD0B2C28FC0B2C28C2
:08106000FB0B2C280000080026
:101068001B3083120313CB00CC018A1154208A153C
:101078000330C8008A116E258A150130CB008C30E8
:10108800CC008A1154208A150230CB000330CC00E2
:101098008A1154208A150330CB006330CC008A11A2
:1010A80054208A150430CB000C30CC008A1154200F
:1010B8008A150530CB000230CC008A1154208A15DD
:1010C8000630CB007730CC008A1154208A150730BF
:1010D800CB005F30CC008A1154208A150830CB0031
:1010E8002430CC008A1154208A150930CB0077307F
:1010F800CC008A1154208A150A30CB005F30CC000E
:101108008A1154208A150B30CB002430CC008A1168
:1011180054208A150C30CB003830CC008A1154206A
:101128008A150D30CB000830CC008A1154208A155E
:101138000E30CB001130CC008A1154208A150F30A4
:10114800CB00CC018A1154208A151030CB00A53071
:10115800CC008A1154208A151130CB003830CC00CD
:101168008A1154208A151230CB003830CC008A11ED
:1011780054208A151330CB000730CC008A11542034
:101188008A151430CB00CC018A1154208A151530E9
:10119800CB00CC018A1154208A151630CB00CC30F4
:1011A800CC008A1154208A151730CB00CC30CC00E3
:1011B8008A1154208A151830CB00CC30CC008A1103
:1011C80054208A151930CB00CC30CC008A11542019
:1011D8008A151A30CB007030CC008A1154208A1539
:1011E8001B30CB003C30CC008A1154208A151C30AF
:1011F800CB000630CC008A1154208A151D30CB0054
:101208000A30CC008A1154208A151E30CB005A307F
:10121800CC008A1154208A151F30CB004030CC00F6
:081228008A1154208A15080008
:101230000630831203178800FE309C00F0309D00BA
:10124000FE309E009430870090019101920193013D
:101250009401950196019701980199019A019B01CA
:02126000080084
:1012620083120313BA01B6018A112B268A150430A0
:1012720083120313C8008A116E258A158A11F82574
:101282008A151A30FC00F830FD00FD0B4629FC0BD4
:10129200462900000230C8008A116E258A150D30D9
:1012A200FC00FB30FD00FD0B5429FC0B542900000F
:1012B20000003608003A031DD2293A08003A031DFD
:1012C200D22988153008003C03186B298A112B2675
:1012D2008A157D29023083120313C8000C30C9001D
:1012E2008A1162208A15033083120313C8000C305E
:1012F200C9008A1162208A151E3083120313C800A6
:101302008A11AB258A157008B10001303105B6008B
:101312000F08AC00AD012C08AD00AC010E08AC0406
:101322000030AD042F08003C031D99292E08013C12
:101332000318D1292D08503C031DA1292C08003C7B
:101342000318D1292E08013EF10000300318013E96
:101352002F07F20072083302031DB129710832020D
:10136200031CD12900303302031DB929193032027E
:101372000318D1291010AE01AF01C8010130C90014
:101382008A1162208A1583120313B201B3018F01FD
:101392008E01101690160130BA00B40A0319B50A6C
:1013A2005A290430C8008A116E258A150130B0000E
:0413B2008811080096
:1013B60083120313A101A201A301A401A501A601A1
:1013C600A701A801E830A9000330AA00AB01AC01CF
:1013D600AD01AE01AF01B001B101B201B301B4017B
:1013E600B501B601B701B801B901BA01BB01E830D0
:1013F600BC000330BD0086120430831691009C01A8
:10140600C43085000130860080308700880189015C
:1014160006148612831285018601880189017130BE
:1014260083168F00831208158714831608118710F8
:10143600182102300313C8000C30C9008A1162203B
:101446008A15033083120313C8000C30C9008A11B1
:1014560062208A15831603130C140B178B1783123D
:10146600901410139015101510108F018E01101680
:1014760090168230FC00DD30FD00FD0B402AFC0B8F
:10148600402A00000000831601138B100B16013052
:101496008312C200C301C4010130C5008A11C527E9
:1014A6008A1534200430C8008A116E258A15273023
:1014B600FC00F530FD00FD0B5E2AFC0B5E2A831254
:1014C60003130530C8008A116E258A152F08003CC3
:1014D600031D6F2A2E08013C0318AC2A2E08013E74
:1014E600F10000300318013E2F07F20072083302A4
:1014F600031D7F2A710832020318AC2A63008A1181
:101506002B268A15831203133D08003C031D8D2AE2
:101516003C081E3C0318942A3908013A0319942AF8
:101526009B2A3B08003A031D9B2A8A11DC258A1553
:101536002508003A031DA62A0A30BC070318BD0A6F
:101546000130A500AB2A0A30BC02031CBD03A5016D
:10155600692A312100302F02031DB32A01302E02E1
:10156600031C452B101000302F06031DBC2A01302A
:101576002E06031DC92A0F08A100A2012108A200F8
:10158600A1010E08A1040030A204D32A0F08AC0062
:10159600AD012C08AD00AC010E08AC040030AD0462
:1015A6003208A3003308A4008F018E01101690168E
:1015B6001014B201B30100302F06031DE42A0130D6
:1015C6002E06031D102B10302202031DEC2A0030BC
:1015D60021020318FD2A0030A107F0300318013E4E
:1015E600A20701302302AE000030031C013E240294
:1015F600AF000F2B2308AE002408AF002108003CE3
:10160600A1002208031C013EA201A2020030A1078C
:1016160010300318013EA207452B10302D02031D82
:10162600162B00302C0203182F2B2C08003CF00040
:101636002D08031C013E103CF1007008A10771083B
:101646000318013EA20701302302AE000030031C3E
:10165600013E2402AF00452B01302302AE000030CC
:10166600031C013E2402AF0000302C02F0001030B3
:10167600031C013E2D02F1007008A102031CA20307
:101686007108A2023A08003A031D6F2B8A112E2711
:101696008A157008A6008A112E278A157008BC00C4
:1016A600BD018A112E278A157008A900AA018A1180
:1016B6002E278A157008B8008A112E278A157008F9
:1016C600AB008A112E278A157008A700C8010230C0
:1016D600C9008A1162208A15053083120313C800D7
:1016E6008A116E258A152708CB3A031D882B8A1185
:1016F6003B278A158A1171278A158A11AE278A1502
:1017060000208A112B268A152D2C831203132708F5
:10171600013A031D2D2C222C10140130AE0000308E
:10172600AF008A113B278A158A1171278A158A11FB
:10173600AE278A1500208A112B268A1583120313D9
:101746003A08003A031DB52B3D30FB00E130FC00A2
:101756003F30FD00FD0BAD2BFC0BAD2BFB0BAD2B7A
:10176600000000002D2C2B08023A031D142C00301B
:10177600F8000030F9000130FA000030FB002108C3
:10178600F0002208F100F201F3017808F40079086C
:10179600F5007A08F6007B08F7007008F402710875
:1017A600031C710FF5027208031C720FF602730810
:1017B600031C730FF70280307706F000803070024A
:1017C600031DEF2B00307602031DEF2B4030750210
:1017D600031DEF2B0030740203180E2C2108003C69
:1017E600F0002208031C013EF101F1027008003CE2
:1017F600F0007108031C013E403CF1007008003CFB
:10180600A1007108031C013EA201A2020130AE0232
:10181600031CAF03142C0030A10740300318013E0F
:10182600A2078A113B278A158A1171278A158A1100
:10183600AE278A1500208A112B268A152D2C0030FA
:10184600831203132F06031D2A2C00302E060319BC
:081856008F2BB62B622A2E2C09
:02400E00D410CC
:00000001FF
