:020000001A2ABA
:1000080080312700931E102801302000AC00270003
:1000180093128B11920191012000111C1D28A50A31
:100028000319A60A11100D309700CF309600F5304D
:040038009800090023
:10003C0012001E00F003031D1E28F103031D1E28D1
:02004C000800AA
:10004E0020002230FC00F801F901FA01FB01FC034B
:10005E0003195C280310FB0CFA0CF90CF80CF30CCA
:10006E00F20CF10CF00C031C2E28FC0303194E2885
:10007E007408F80775080318750FF9077608031842
:10008E00760FFA0777080318770FFB0732287408E4
:10009E00F80775080318750FF90776080318760F19
:0C00AE00FA0777080318770FFB0708001B
:1000BA002000F801F9011030FC00710DF80DF90D5E
:1000CA007408F8027508031C750FF90203187428DE
:1000DA007408F80775080318750FF9070310F00D6F
:0800EA00F10DFC0B6228080077
:1000F2002000FB01FA01F901F801A001730DF80DCE
:100102007408F8027508031C750FF9027608031CBF
:10011200760FFA027708031C770FFB020001031C1B
:100122000130A002F30D0730FC00730DF80DF90D3C
:10013200FA0DFB0DA00D7408731CB128F8027508A6
:10014200031C750FF9027608031C760FFA02770872
:10015200031C770FFB020001031C0130A002C2281E
:10016200F80775080318750FF90776080318760F54
:10017200FA0777080318770FFB070001031801300D
:10018200A007F30DFC0B9628720DF80DF90DFA0D70
:10019200FB0DA00D7408731CE028F8027508031CFF
:1001A200750FF9027608031C760FFA027708031C12
:1001B200770FFB020001031C0130A002F128F807AF
:1001C20075080318750FF90776080318760FFA07F2
:1001D20077080318770FFB07000103180130A00707
:1001E200F20D0730FC00720DF80DF90DFA0DFB0D42
:1001F200A00D7408721C0F29F8027508031C750FF4
:10020200F9027608031C760FFA027708031C770FAF
:10021200FB020001031C0130A0022029F807750827
:100222000318750FF90776080318760FFA0777088F
:100232000318770FFB07000103180130A007F20D26
:10024200FC0BF428710DF80DF90DFA0DFB0DA00D44
:100252007408721C3E29F8027508031C750FF90216
:100262007608031C760FFA027708031C770FFB024D
:100272000001031C0130A0024F29F807750803187A
:10028200750FF90776080318760FFA07770803182F
:10029200770FFB07000103180130A007F10D0730AB
:1002A200FC00710DF80DF90DFA0DFB0DA00D74088F
:1002B200711C6D29F8027508031C750FF902760886
:1002C200031C760FFA027708031C770FFB0200016A
:1002D200031C0130A0027E29F80775080318750F68
:1002E200F90776080318760FFA0777080318770FCD
:1002F200FB07000103180130A007F10DFC0B522986
:10030200700DF80DF90DFA0DFB0DA00D7408711C9E
:100312009C29F8027508031C750FF9027608031C64
:10032200760FFA027708031C770FFB020001031C09
:100332000130A002AD29F80775080318750FF907F7
:1003420076080318760FFA0777080318770FFB076A
:10035200000103180130A007F00D0730FC00700DFA
:10036200F80DF90DFA0DFB0DA00D7408701CCB29C8
:10037200F8027508031C750FF9027608031C760F44
:10038200FA027708031C770FFB020001031C0130FD
:10039200A002DC29F80775080318750FF90776081B
:1003A2000318760FFA0777080318770FFB07000187
:1003B20003180130A007F00DFC0BB0297018EF29CB
:1003C2007408F80775080318750FF90776080318FB
:0E03D200760FFA0777080318770FFB0708006D
:1003E0002000FB01FA01F9018030F800F10CF00C5B
:1003F000031C032A7408F90775080318750FFA0718
:100400000318FB0A0310F01F0B2A7408FA0775087B
:100410000318750FFB07FB0CFA0CF90CF80C031C06
:10042000F6297B08F3007A08F2007908F1007808D1
:04043000F0000800D0
:100434002000A101A201A301A401A501A601A70115
:10044400A801A901AA01AB01AC011830AD00153017
:10045400AE0023008C01283021008C0020008C1079
:100464000C118C010230210099008B170B178B158E
:1004740020302700920091019301200099130D3040
:100484009700CF309600F43098002100111420001A
:1004940011102200911324008C01210017101D104B
:1004A40020002C08013A031D712B8C1A712BA50115
:1004B400A6010D309700CF309600F53098008C1AC5
:1004C4006E2A8C140430FC008430FD00FD0B682A75
:1004D400FC0B682A0000612A8C1018100C11AC0166
:1004E400A101A201A301A401A4011808A3001708F3
:1004F400A200A1011608A1070030A23D0030A3000C
:10050400A400CF30A1020D30A23B0030A33BA43B9A
:100514002108F0002208F1002308F2002408F30067
:100524000830F400F501F601F70127207008A10056
:100534007108A2007208A3007308A4003230F4000A
:10054400F501F601F7012108F0002208F100230863
:10055400F2002408F30079207008A1007108A200B9
:100564007208A3007308A4001F30F400F501F6011B
:10057400F7012108F0002208F1002308F200240802
:10058400F30079207008A1007108A2007208A3008A
:100594007308A4002508F0002608F100A030F40038
:1005A400F501F0217008A1077108A23D0030A33DB8
:1005B400A43D0A30F400F501F601F7012108F0002A
:1005C4002208F1002308F2002408F30079207808B7
:1005D400F0007908F1007A08F2007B08F30000309B
:1005E4007302031DFF2A00307202031DFF2A00302C
:1005F4007102031DFF2A053070020318182B0A30FC
:10060400F400F501F601F7012108F0002208F100D9
:100614002308F2002408F30079207008A10071086F
:10062400A2007208A3007308A400322B0A30F4005D
:10063400F501F601F7012108F0002208F100230872
:10064400F2002408F300792001307007A100003083
:10065400713DA2000030723DA3000030733DA40040
:10066400A801A901AA01AB0124082B02031D442BF4
:1006740023082A02031D442B22082902031D442BAC
:10068400210828020318582B0C150630FC000630EC
:10069400FD00FD0B4B2BFC0B4B2B0000000001302D
:1006A400A8070030A93DAA3DAB3D362B0C11003004
:1006B400FD00FD0B5B2B00000000000000000000AB
:1006C40000008B1520302700920093010D3020008C
:1006D4009700CF309600F5309800A501A6010230AE
:1006E400F4000030F5002508F0002608F1005D2034
:1006F4007808F0007908F10000307106031D842B9E
:1007040000307006031D942B2708013A031D932B18
:100714000C159A30FD00FD0B8D2B000000000C1110
:10072400A701962B0130A7002E082602031D9C2B3F
:100734002D082502031CCD2B0D309700CF309600D9
:10074400F5309800A501A601A801A901AA01AB01F1
:1007540024082B02031DB82B23082A02031DB82BDF
:1007640022082902031DB82B210828020318CC2BC8
:100774008C140630FC000630FD00FD0BBF2BFC0B77
:10078400BF2B000000000130A8070030A93DAA3D9E
:0A079400AB3DAA2B8C10522ACE2B8D
:020000040001F9
:04000E00A008030C37
:00000001FF
