:020000009F2C33
:10000800FF00030E83018316E2000A08E1008A015B
:10001800803083128F008E010C100130DF008316B0
:0E00280061088A00620E8300FF0E7F0E090041
:06003600000000000800BC
:0E003C00213083120313FD00FD0B2228080063
:10004A000F3083120313FC004730FD00FD0B2B28F1
:0A005A00FC0B2B280000000008003A
:1000640083120317991B3828861339288617191BFE
:100074003D2806133E280617991A4228861243285B
:100084008616191A472806124828061603136F18ED
:100094004D2886144E28861086151B2086110317BA
:1000A4009919562886135728861719195B28061399
:1000B4005C28061799186028861261288616191874
:1000C400652806126628061603136F186B28861413
:1000D4006C28861086151B2086116F1C732825201A
:0600E40074281E20080034
:1000EA008312031305166830FC00E430FD00FD0B93
:0C00FA007C28FC0B7C280000051208008C
:10010600831203136F1003171808990032206F1417
:020116000800DF
:100118009E288030831203179300B128C0309300C3
:10012800B12894309300B128D4309300B12880309E
:100138009300B128831203171308013A03198D2875
:100148001308023A031992281308033A0319952849
:100158001308043A031998289B281403F00013087D
:10016800F007700893007008990032206F10031789
:10017800960116081507840000080319CC281608EC
:10018800150784000008980083200317960ABD28E5
:0601980003136F140800C0
:0E019E008316031360088A005F0882000800C1
:1001AC00E8288030831203179300FB28C03093009B
:1001BC00FB2894309300FB28D4309300FB2880302C
:1001CC009300FB28831203171308013A0319D7284D
:1001DC001308023A0319DC281308033A0319DF2821
:1001EC001308043A0319E228E5281403F000130855
:1001FC00F0077008930003136F147008031799002D
:10020C0032206F1003171508990032206F14080064
:10021C007520372931300317930069293230930048
:10022C0069293330930069293430930069293530BA
:10023C009300692936309300692937309300692976
:10024C003830930069293930930069292A3093009A
:10025C00692930309300692923309300692993016F
:10026C00692903171308013A031910291308023AD4
:10027C00031914291308033A031917291308053A0B
:10028C0003191A291308063A03191D291308073AEA
:10029C00031920291308093A0319232913080A3AC8
:1002AC000319262913080B3A0319292913080D3AA7
:1002BC0003192C2913080E3A03192F2913080F3A86
:0C02CC000319322935291308F00008003E
:1002D800831203179301950196011030970004309B
:1002E800160203189C29F030031388000317170916
:1002F8008316031388001B201B200F308312080568
:10030800F00070080317940070080319962915085F
:100318009300140803199429940C9413930A8D29B3
:1003280004309600970D171004309507960A732924
:060338001308F0000800AC
:10033E0083160313EF0183120911091010100230F6
:10034E000317930001309400613095008C208316C2
:10035E00EF0132306F020318D629831289148515E6
:10036E000230FB000430FC00BA30FD00FD0BBD294D
:10037E00FC0BBD29FB0BBD29000089108511023035
:10038E00FB000430FC00BA30FD00FD0BCC29FC0B49
:10039E00CC29FB0BCC2900008316EF0AB029D629F5
:0203AE00080045
:1003B00083160313EF018312091189101010023004
:1003C0000317930001309400CA3095008C208316E7
:1003D000EF0132306F0203180F2A831209148515BA
:1003E0000230FB000430FC00BA30FD00FD0BF629A2
:1003F000FC0BF629FB0BF6290000091085110230D1
:10040000FB000430FC00BA30FD00FD0B052AFC0B9C
:10041000052AFB0B052A00008316EF0AE9290F2A9B
:020420000800D2
:1004220083160313EF010130831203179300013087
:1004320094004E3095008C20023003179300013057
:100442009400403095008C200130A6008316EF0105
:1004520004306F0203180E2B02308312031793002D
:1004620003132608031794005F309500D6208316E5
:100472006F08203E8312031792006C211208840039
:10048200700880000230FB008630FC009930FD00CD
:10049200FD0B492AFC0B492AFB0B492A831603133D
:1004A2006F08203E840000080F3A031D5C2A6F0883
:1004B200203E840080016F08203E840000080D3A2F
:1004C200031D9A2A752083166F08003C0318952A8B
:1004D200EF0383122608043A031D7C2A0230031715
:1004E2009300031326080317940020309500D620AA
:1004F2000230A6008B2A2608033A03198A2A023000
:100502000317930003132608031794002030950065
:10051200D620A603023003179300031326080317FD
:1005220094005F309500D62083166F08203E840029
:1005320080016F08023A031DAC2A83122208063C8E
:100542000318AC2A22080E3A0319AC2A83166F0844
:10055200203E8400800183166F08203E840000083C
:100562000319382A6F08203E83120317920083165C
:1005720003136F08203E84000008831203179300C0
:100582000E211208840070088000023093000313C9
:10059200260803179400831603136F08203E840075
:1005A2000008831203179500D620A60A2608033AEC
:1005B200031DDD2A0430A60083166F08033A031DCB
:1005C2000B2B6C2170080313A7000230FB0086304E
:1005D200FC009930FD00FD0BEC2AFC0BEC2AFB0B16
:1005E200EC2A27080D3A031D062B8316EF0383120C
:1005F200A60302300317930003132608031794007F
:100602005F309500D6200F30A70027080F3A031D50
:10061200E22A75208316EF0A292A30308312A500B8
:100622002508A4000230FB000430FC00BA30FD00B3
:10063200FD0B192BFC0B192BFB0B192B00000130A6
:100642000317990032200130031793000130940000
:100652002F3095008C200230031793000130940054
:10066200283095008C20A7010730A6008316EF01E1
:1006720009306F020318FF2B6F08D63E831203174F
:1006820092006C2112088400700880000230FB0086
:100692008630FC009930FD00FD0B4D2BFC0B4D2BE1
:1006A200FB0B4D2B831603136F08D63E8400000804
:1006B2000D3A031D7B2B752083166F08003C03182F
:1006C200772B8312A6038316EF03023083120317DC
:1006D2009300031326080317940020309500D620B8
:1006E20083166F08D63E840080017B2B6F08D63EAE
:1006F200840080016F08D63E840000080F3A031D73
:10070200912B752083166F08003C03188C2B013047
:100712008312A700912B83166F08D63E84008001B6
:1007220083166F08D63E8400000803193D2B8312FE
:100732002708013A031DA52B83166F088312EE00CA
:100742000A308316EF00CA2B83166F08D63E831237
:1007520003179200831603136F08D63E8400000825
:100762008312031793000E21120884007008800080
:100772000230930003132608031794008316031311
:100782006F08D63E84000008831203179500D62016
:10079200A60A83166F08083A031DFC2B6C21700809
:1007A2000313A7000230FB008630FC009930FD00E5
:1007B200FD0BD92BFC0BD92BFB0BD92B27080D3AA0
:1007C200031DF32B8316EF038312A60302300317D4
:1007D2009300031326080317940020309500D620B7
:1007E2000F30A70083166F0A8312EE0027080F3A14
:1007F200031DCF2B75208316EF0A392B0230FB0025
:100802000430FC00BA30FD00FD0B052CFC0B052C5E
:10081200FB0B052C000001308312031799003220D4
:1008220001300317930001309400AA3095008C2008
:10083200851C262C8230FC00DD30FD00FD0B1F2CB8
:10084200FC0B1F2C00000000192C0130031799002B
:10085200322002300317930001309400B930950022
:100862008C200230FB000430FC00BA30FD00FD0B8E
:0E087200382CFC0B382CFB0B382C0000080037
:0A088000FF30831603138800080000
:10088A00CF208A110A128000840ADF0A0319E00ABB
:08089A00F003031D452C0800CA
:1008A2008316031386118610061286120613861308
:1008B20083128611861086130613861206122520CD
:1008C200252025208616061686151B208611252032
:1008D20086151B208611252086151B2086112520B2
:1008E200061286151B208611252086151B208611CF
:1008F2008612861786151B2086112520861306165A
:1009020086151B208611061286151B2086112520AE
:1009120086151B208611061686151B20861125209A
:10092200061286151B2086118617061786160616CE
:0C09320086151B20861125206F1408007C
:10093E00042783160313EC01ED01EE01013083123F
:10094E00031790000030910040240317880189019D
:10095E0083128713881303131F10831685018601D4
:10096E000330870089018312850187010911091956
:10097E00C22C0910C32C09140918C72C8910C82CB5
:10098E0089148316851483120611713083168F0015
:10099E0083120C1080308F008E01901490159012DF
:1009AE001012101583160C14C0308B008230FC0010
:1009BE00DD30FD00FD0BE12CFC0BE12C00000000F6
:1009CE0083121010512401300317990032200C307D
:1009DE000317990032201A30FC00F830FD00FD0B91
:1009EE00F62CFC0BF62C000011221014013003170C
:1009FE009300073094003A309500D620013003174B
:100A0E0093000A3094003A309500D620A701831245
:100A1E008030F0008030031711067002031D192D6F
:100A2E001008003C0318782E031309115F08013AD1
:100A3E00031DAF2D2508303A031D502D3930A5006A
:100A4E002408303A031D4E2D3530A4002308303AC9
:100A5E00031D4C2D3930A3002208303A031D4A2DB8
:100A6E003530A2002108303A031D482D3930A1003F
:100A7E002008303A031D462D3930A000472DA00323
:100A8E00492DA1034B2DA2034D2DA3034F2DA403DE
:100A9E00512DA50301300317930005309400031365
:100AAE00200803179500D620013003179300063057
:100ABE0094000313210803179500D6200130031765
:100ACE009300083094000313220803179500D620D4
:100ADE000130031793000930940003132308031702
:100AEE009500D6200130031793000B3094000313AA
:100AFE00240803179500D6200130031793000C30FD
:100B0E0094000313250803179500D62009157520A8
:100B1E00DF0103179001910183160313ED010630D7
:100B2E006D020318AF2D6D08203E84003030000298
:100B3E00F000F101031CF1037008831203179007F4
:100B4E0071080318013E910783160313ED0A962DC3
:100B5E006C2170080313E0006008003A0319092E97
:100B6E000230FB008630FC009930FD00FD0BBD2DE0
:100B7E00FC0BBD2DFB0BBD2D60080F3A031DCB2DBD
:100B8E0075200130A700092E60080D3A031DE32DD4
:100B9E007520023003179300831603136C0883121B
:100BAE000317940020309500D62083166C08003C65
:100BBE000318E22DEC03092E831609306C0203187C
:100BCE00092E83126008031793000E217008031379
:100BDE00E00083166C08E33E8400831260088000F8
:100BEE008316EC0A02308312031793008316031345
:100BFE006C08831203179400031360080317950003
:100C0E00D620E0018312851C0F2E101C0F2E9F2163
:100C1E00831203132708013A031D772E83166C08DF
:100C2E0083126E060319322E8316EE0A02308312D9
:100C3E00031793000F3094003030831603136E07A2
:100C4E00831203179500D62083166E08023C0318F4
:100C5E00312E9F21622E83160313EC0183126E0830
:100C6E0083166C020318622E6C08E33E84000008A3
:100C7E00F1006C08D63E84007108000603195E2E42
:100C8E00EE0A02308312031793000F3094003030B7
:100C9E00831603136E07831203179500D620323086
:100CAE008316EC006E08023C03185E2E9F218316FD
:100CBE000313EC0A352E831603136C0883126E068B
:100CCE00031D6A2ED82102308312031793000130C0
:100CDE009400A03095008C208316EC018312A7019E
:080CEE000E2D9F210E2D7A2E20
:100E0800203084004E3083120313F00080308316A4
:100E1800DF000630E0004524A0308400193083123A
:100E2800F000EB308316DF000630E00045246E301A
:100E3800840001308312F00003308316DF00003095
:100E4800E0004524B93084001D308312F000CE3014
:0C0E58008316DF000630E000452408008F
:020006000034C4
:0C0D0000003400340034003400340034AF
:020D0C000034B1
:020D0E000034AF
:0E0D100043344F34443445343A3420340034F4
:100D1E0045344E3454344534523420344134433403
:100D2E005434493456344134543449344F344E34A7
:020D3E0000347F
:100D4000203420343A342034203420342834683499
:0C0D500068343A346D346D3429340034BA
:100D5C0045344E34543445345234203447344134C1
:100D6C004D3445342034543449344D3445343A34BC
:020D7C00003441
:020D7E0001343E
:020D800000343D
:100D8200203420342034203459344F345534203424
:0A0D92004C344F3453344534003420
:100D9C0020342034203420342034203420342034A7
:100DAC002034203420342034203428343034293476
:020DBC00003401
:100DBE00203420342034203459344F3455342034E8
:080DCE00573449344E3400345F
:100DD600203420342034203420342034203420346D
:040DE6002034003481
:100DEA00413472346D3420347434683465342034B8
:0E0DFA0044346534763469346334653400342F
:04400E00C42C0006B8
:00000001FF
